{
  "_format": "hh-sol-artifact-1",
  "contractName": "PreDeFi",
  "sourceName": "contracts/PreDeFi.sol",
  "abi": [
    {
      "inputs": [
        {
          "internalType": "uint256",
          "name": "_fee",
          "type": "uint256"
        },
        {
          "internalType": "string[]",
          "name": "pairs",
          "type": "string[]"
        }
      ],
      "stateMutability": "nonpayable",
      "type": "constructor"
    },
    {
      "anonymous": false,
      "inputs": [
        {
          "indexed": true,
          "internalType": "address",
          "name": "wallet",
          "type": "address"
        },
        {
          "indexed": false,
          "internalType": "uint256",
          "name": "available",
          "type": "uint256"
        }
      ],
      "name": "CollectFee",
      "type": "event"
    },
    {
      "anonymous": false,
      "inputs": [
        {
          "indexed": false,
          "internalType": "uint256",
          "name": "id",
          "type": "uint256"
        },
        {
          "indexed": true,
          "internalType": "uint256",
          "name": "ticketPrice",
          "type": "uint256"
        },
        {
          "indexed": true,
          "internalType": "string",
          "name": "pair",
          "type": "string"
        },
        {
          "indexed": false,
          "internalType": "uint256",
          "name": "startTimestamp",
          "type": "uint256"
        },
        {
          "indexed": false,
          "internalType": "uint256",
          "name": "endTimestamp",
          "type": "uint256"
        }
      ],
      "name": "NewPrediction",
      "type": "event"
    },
    {
      "anonymous": false,
      "inputs": [
        {
          "indexed": true,
          "internalType": "address",
          "name": "previousOwner",
          "type": "address"
        },
        {
          "indexed": true,
          "internalType": "address",
          "name": "newOwner",
          "type": "address"
        }
      ],
      "name": "OwnershipTransferred",
      "type": "event"
    },
    {
      "anonymous": false,
      "inputs": [
        {
          "indexed": true,
          "internalType": "address",
          "name": "user",
          "type": "address"
        },
        {
          "indexed": true,
          "internalType": "uint256",
          "name": "id",
          "type": "uint256"
        },
        {
          "indexed": false,
          "internalType": "int256[]",
          "name": "predictions",
          "type": "int256[]"
        }
      ],
      "name": "Predict",
      "type": "event"
    },
    {
      "anonymous": false,
      "inputs": [
        {
          "indexed": true,
          "internalType": "address",
          "name": "caller",
          "type": "address"
        },
        {
          "indexed": false,
          "internalType": "uint256",
          "name": "id",
          "type": "uint256"
        },
        {
          "indexed": false,
          "internalType": "int256",
          "name": "price",
          "type": "int256"
        },
        {
          "indexed": false,
          "internalType": "uint256",
          "name": "timestamp",
          "type": "uint256"
        },
        {
          "indexed": false,
          "internalType": "address[]",
          "name": "winners",
          "type": "address[]"
        }
      ],
      "name": "Resolve",
      "type": "event"
    },
    {
      "anonymous": false,
      "inputs": [
        {
          "indexed": true,
          "internalType": "address",
          "name": "caller",
          "type": "address"
        },
        {
          "indexed": false,
          "internalType": "string[]",
          "name": "pairs",
          "type": "string[]"
        }
      ],
      "name": "Whitelist",
      "type": "event"
    },
    {
      "anonymous": false,
      "inputs": [
        {
          "indexed": true,
          "internalType": "address",
          "name": "caller",
          "type": "address"
        },
        {
          "indexed": true,
          "internalType": "uint256",
          "name": "id",
          "type": "uint256"
        },
        {
          "indexed": false,
          "internalType": "uint256",
          "name": "amount",
          "type": "uint256"
        }
      ],
      "name": "WithdrawWin",
      "type": "event"
    },
    {
      "inputs": [],
      "name": "available",
      "outputs": [
        {
          "internalType": "uint256",
          "name": "",
          "type": "uint256"
        }
      ],
      "stateMutability": "view",
      "type": "function"
    },
    {
      "inputs": [
        {
          "internalType": "uint256",
          "name": "",
          "type": "uint256"
        }
      ],
      "name": "batches",
      "outputs": [
        {
          "internalType": "uint256",
          "name": "id",
          "type": "uint256"
        },
        {
          "internalType": "uint256",
          "name": "ticketCost",
          "type": "uint256"
        },
        {
          "internalType": "uint256",
          "name": "totalTickets",
          "type": "uint256"
        },
        {
          "internalType": "uint256",
          "name": "totalBalanceAfterFee",
          "type": "uint256"
        },
        {
          "internalType": "uint256",
          "name": "startTimestamp",
          "type": "uint256"
        },
        {
          "internalType": "uint256",
          "name": "closeTimestamp",
          "type": "uint256"
        },
        {
          "internalType": "int256",
          "name": "winPrice",
          "type": "int256"
        },
        {
          "internalType": "string",
          "name": "pair",
          "type": "string"
        },
        {
          "internalType": "bool",
          "name": "isClosed",
          "type": "bool"
        }
      ],
      "stateMutability": "view",
      "type": "function"
    },
    {
      "inputs": [
        {
          "internalType": "address",
          "name": "",
          "type": "address"
        },
        {
          "internalType": "uint256",
          "name": "",
          "type": "uint256"
        }
      ],
      "name": "claimed",
      "outputs": [
        {
          "internalType": "bool",
          "name": "",
          "type": "bool"
        }
      ],
      "stateMutability": "view",
      "type": "function"
    },
    {
      "inputs": [
        {
          "internalType": "address payable",
          "name": "wallet",
          "type": "address"
        }
      ],
      "name": "collectFee",
      "outputs": [],
      "stateMutability": "nonpayable",
      "type": "function"
    },
    {
      "inputs": [],
      "name": "fee",
      "outputs": [
        {
          "internalType": "uint256",
          "name": "",
          "type": "uint256"
        }
      ],
      "stateMutability": "view",
      "type": "function"
    },
    {
      "inputs": [
        {
          "internalType": "string",
          "name": "pair",
          "type": "string"
        }
      ],
      "name": "getPrice",
      "outputs": [
        {
          "internalType": "int256",
          "name": "price",
          "type": "int256"
        },
        {
          "internalType": "uint256",
          "name": "timestamp",
          "type": "uint256"
        }
      ],
      "stateMutability": "view",
      "type": "function"
    },
    {
      "inputs": [
        {
          "internalType": "string",
          "name": "",
          "type": "string"
        }
      ],
      "name": "isValidPair",
      "outputs": [
        {
          "internalType": "bool",
          "name": "",
          "type": "bool"
        }
      ],
      "stateMutability": "view",
      "type": "function"
    },
    {
      "inputs": [
        {
          "internalType": "uint256",
          "name": "ticketCost",
          "type": "uint256"
        },
        {
          "internalType": "uint256",
          "name": "startsIn",
          "type": "uint256"
        },
        {
          "internalType": "uint256",
          "name": "lastsFor",
          "type": "uint256"
        },
        {
          "internalType": "string",
          "name": "pair",
          "type": "string"
        }
      ],
      "name": "newPrediction",
      "outputs": [
        {
          "internalType": "uint256",
          "name": "id",
          "type": "uint256"
        }
      ],
      "stateMutability": "nonpayable",
      "type": "function"
    },
    {
      "inputs": [],
      "name": "owner",
      "outputs": [
        {
          "internalType": "address",
          "name": "",
          "type": "address"
        }
      ],
      "stateMutability": "view",
      "type": "function"
    },
    {
      "inputs": [
        {
          "internalType": "uint256",
          "name": "id",
          "type": "uint256"
        },
        {
          "internalType": "int256[]",
          "name": "_predictions",
          "type": "int256[]"
        }
      ],
      "name": "predict",
      "outputs": [],
      "stateMutability": "payable",
      "type": "function"
    },
    {
      "inputs": [],
      "name": "renounceOwnership",
      "outputs": [],
      "stateMutability": "nonpayable",
      "type": "function"
    },
    {
      "inputs": [
        {
          "internalType": "uint256",
          "name": "id",
          "type": "uint256"
        }
      ],
      "name": "resolve",
      "outputs": [],
      "stateMutability": "nonpayable",
      "type": "function"
    },
    {
      "inputs": [
        {
          "internalType": "address",
          "name": "addr",
          "type": "address"
        },
        {
          "internalType": "uint256",
          "name": "id",
          "type": "uint256"
        }
      ],
      "name": "result",
      "outputs": [
        {
          "internalType": "bool",
          "name": "isWinner",
          "type": "bool"
        },
        {
          "internalType": "uint256",
          "name": "winTickets",
          "type": "uint256"
        }
      ],
      "stateMutability": "view",
      "type": "function"
    },
    {
      "inputs": [],
      "name": "routerAddress",
      "outputs": [
        {
          "internalType": "address",
          "name": "",
          "type": "address"
        }
      ],
      "stateMutability": "view",
      "type": "function"
    },
    {
      "inputs": [
        {
          "internalType": "address",
          "name": "newOwner",
          "type": "address"
        }
      ],
      "name": "transferOwnership",
      "outputs": [],
      "stateMutability": "nonpayable",
      "type": "function"
    },
    {
      "inputs": [
        {
          "internalType": "string[]",
          "name": "pairs",
          "type": "string[]"
        }
      ],
      "name": "whitelist",
      "outputs": [],
      "stateMutability": "nonpayable",
      "type": "function"
    },
    {
      "inputs": [
        {
          "internalType": "uint256",
          "name": "id",
          "type": "uint256"
        }
      ],
      "name": "withdrawWin",
      "outputs": [],
      "stateMutability": "nonpayable",
      "type": "function"
    }
  ],
  "bytecode": "0x608060405273700a89ba8f908af38834b9aba238b362cffb665f600560006101000a81548173ffffffffffffffffffffffffffffffffffffffff021916908373ffffffffffffffffffffffffffffffffffffffff1602179055503480156200006657600080fd5b50604051620042623803806200426283398181016040528101906200008c919062000662565b620000ac620000a06200012f60201b60201c565b6200013760201b60201c565b81600381905550620000c481620001fb60201b60201c565b600560009054906101000a900473ffffffffffffffffffffffffffffffffffffffff16600160006101000a81548173ffffffffffffffffffffffffffffffffffffffff021916908373ffffffffffffffffffffffffffffffffffffffff1602179055505050620009a2565b600033905090565b60008060009054906101000a900473ffffffffffffffffffffffffffffffffffffffff169050816000806101000a81548173ffffffffffffffffffffffffffffffffffffffff021916908373ffffffffffffffffffffffffffffffffffffffff1602179055508173ffffffffffffffffffffffffffffffffffffffff168173ffffffffffffffffffffffffffffffffffffffff167f8be0079c531659141344cd1fd0a4f28419497f9722a3daafe3b4186f6b6457e060405160405180910390a35050565b6200020b620002de60201b60201c565b60008151905060005b8181101562000289576001600a848381518110620002375762000236620006c8565b5b60200260200101516040516200024e919062000744565b908152602001604051809103902060006101000a81548160ff021916908315150217905550808062000280906200078c565b91505062000214565b503373ffffffffffffffffffffffffffffffffffffffff167f469f95620e2d768d45f8212953d9bb91e8c725277c8f442cb6eaa01af329fdbf83604051620002d29190620008fb565b60405180910390a25050565b620002ee6200012f60201b60201c565b73ffffffffffffffffffffffffffffffffffffffff16620003146200036f60201b60201c565b73ffffffffffffffffffffffffffffffffffffffff16146200036d576040517f08c379a0000000000000000000000000000000000000000000000000000000008152600401620003649062000980565b60405180910390fd5b565b60008060009054906101000a900473ffffffffffffffffffffffffffffffffffffffff16905090565b6000604051905090565b600080fd5b600080fd5b6000819050919050565b620003c181620003ac565b8114620003cd57600080fd5b50565b600081519050620003e181620003b6565b92915050565b600080fd5b6000601f19601f8301169050919050565b7f4e487b7100000000000000000000000000000000000000000000000000000000600052604160045260246000fd5b6200043782620003ec565b810181811067ffffffffffffffff82111715620004595762000458620003fd565b5b80604052505050565b60006200046e62000398565b90506200047c82826200042c565b919050565b600067ffffffffffffffff8211156200049f576200049e620003fd565b5b602082029050602081019050919050565b600080fd5b600080fd5b600067ffffffffffffffff821115620004d857620004d7620003fd565b5b620004e382620003ec565b9050602081019050919050565b60005b8381101562000510578082015181840152602081019050620004f3565b60008484015250505050565b6000620005336200052d84620004ba565b62000462565b905082815260208101848484011115620005525762000551620004b5565b5b6200055f848285620004f0565b509392505050565b600082601f8301126200057f576200057e620003e7565b5b8151620005918482602086016200051c565b91505092915050565b6000620005b1620005ab8462000481565b62000462565b90508083825260208201905060208402830185811115620005d757620005d6620004b0565b5b835b818110156200062557805167ffffffffffffffff8111156200060057620005ff620003e7565b5b8086016200060f898262000567565b85526020850194505050602081019050620005d9565b5050509392505050565b600082601f830112620006475762000646620003e7565b5b8151620006598482602086016200059a565b91505092915050565b600080604083850312156200067c576200067b620003a2565b5b60006200068c85828601620003d0565b925050602083015167ffffffffffffffff811115620006b057620006af620003a7565b5b620006be858286016200062f565b9150509250929050565b7f4e487b7100000000000000000000000000000000000000000000000000000000600052603260045260246000fd5b600081519050919050565b600081905092915050565b60006200071a82620006f7565b62000726818562000702565b935062000738818560208601620004f0565b80840191505092915050565b60006200075282846200070d565b915081905092915050565b7f4e487b7100000000000000000000000000000000000000000000000000000000600052601160045260246000fd5b60006200079982620003ac565b91507fffffffffffffffffffffffffffffffffffffffffffffffffffffffffffffffff8203620007ce57620007cd6200075d565b5b600182019050919050565b600081519050919050565b600082825260208201905092915050565b6000819050602082019050919050565b600082825260208201905092915050565b60006200082382620006f7565b6200082f818562000805565b935062000841818560208601620004f0565b6200084c81620003ec565b840191505092915050565b600062000865838362000816565b905092915050565b6000602082019050919050565b60006200088782620007d9565b620008938185620007e4565b935083602082028501620008a785620007f5565b8060005b85811015620008e95784840389528151620008c7858262000857565b9450620008d4836200086d565b925060208a01995050600181019050620008ab565b50829750879550505050505092915050565b600060208201905081810360008301526200091781846200087a565b905092915050565b600082825260208201905092915050565b7f4f776e61626c653a2063616c6c6572206973206e6f7420746865206f776e6572600082015250565b6000620009686020836200091f565b9150620009758262000930565b602082019050919050565b600060208201905081810360008301526200099b8162000959565b9050919050565b6138b080620009b26000396000f3fe6080604052600436106100fe5760003560e01c8063715018a611610095578063a7096d5211610064578063a7096d5214610328578063b32c4d8d14610365578063c80b3745146103aa578063ddca3f43146103d3578063f2fde38b146103fe576100fe565b8063715018a61461028d5780637d74b440146102a45780638da5cb5b146102e15780639867ccd81461030c576100fe565b80634dd6c8de116100d15780634dd6c8de146101c05780634f896d4f146101fd578063524f38891461022657806369b59e7514610264576100fe565b80633268cc5614610103578063373fac5a1461012e5780633e6da5d51461015757806348a0d75414610195575b600080fd5b34801561010f57600080fd5b50610118610427565b60405161012591906121fd565b60405180910390f35b34801561013a57600080fd5b5061015560048036038101906101509190612458565b61044d565b005b34801561016357600080fd5b5061017e60048036038101906101799190612503565b61051d565b60405161018c92919061256d565b60405180910390f35b3480156101a157600080fd5b506101aa610969565b6040516101b79190612596565b60405180910390f35b3480156101cc57600080fd5b506101e760048036038101906101e29190612503565b61096f565b6040516101f491906125b1565b60405180910390f35b34801561020957600080fd5b50610224600480360381019061021f91906125cc565b61099e565b005b34801561023257600080fd5b5061024d600480360381019061024891906125f9565b6110f5565b60405161025b92919061265b565b60405180910390f35b34801561027057600080fd5b5061028b600480360381019061028691906126c2565b61119c565b005b34801561029957600080fd5b506102a2611252565b005b3480156102b057600080fd5b506102cb60048036038101906102c691906125f9565b611266565b6040516102d891906125b1565b60405180910390f35b3480156102ed57600080fd5b506102f661129c565b60405161030391906121fd565b60405180910390f35b6103266004803603810190610321919061274a565b6112c5565b005b34801561033457600080fd5b5061034f600480360381019061034a9190612800565b6118da565b60405161035c9190612596565b60405180910390f35b34801561037157600080fd5b5061038c600480360381019061038791906125cc565b611a3c565b6040516103a199989796959493929190612907565b60405180910390f35b3480156103b657600080fd5b506103d160048036038101906103cc91906125cc565b611b1f565b005b3480156103df57600080fd5b506103e8611ea5565b6040516103f59190612596565b60405180910390f35b34801561040a57600080fd5b506104256004803603810190610420919061299b565b611eab565b005b600560009054906101000a900473ffffffffffffffffffffffffffffffffffffffff1681565b610455611f2e565b60008151905060005b818110156104ca576001600a84838151811061047d5761047c6129c8565b5b60200260200101516040516104929190612a33565b908152602001604051809103902060006101000a81548160ff02191690831515021790555080806104c290612a79565b91505061045e565b503373ffffffffffffffffffffffffffffffffffffffff167f469f95620e2d768d45f8212953d9bb91e8c725277c8f442cb6eaa01af329fdbf836040516105119190612bcd565b60405180910390a25050565b6000808260006007600083815260200190815260200160002060405180610140016040529081600082015481526020016001820154815260200160028201548152602001600382015481526020016004820154815260200160058201548152602001600682015481526020016007820180548060200260200160405190810160405280929190818152602001828054801561060d57602002820191906000526020600020905b8160009054906101000a900473ffffffffffffffffffffffffffffffffffffffff1673ffffffffffffffffffffffffffffffffffffffff16815260200190600101908083116105c3575b5050505050815260200160088201805461062690612c1e565b80601f016020809104026020016040519081016040528092919081815260200182805461065290612c1e565b801561069f5780601f106106745761010080835404028352916020019161069f565b820191906000526020600020905b81548152906001019060200180831161068257829003601f168201915b505050505081526020016009820160009054906101000a900460ff1615151515815250509050600081608001510361070c576040517f08c379a000000000000000000000000000000000000000000000000000000000815260040161070390612c9b565b60405180910390fd5b6000600760008781526020019081526020016000206040518061014001604052908160008201548152602001600182015481526020016002820154815260200160038201548152602001600482015481526020016005820154815260200160068201548152602001600782018054806020026020016040519081016040528092919081815260200182805480156107f857602002820191906000526020600020905b8160009054906101000a900473ffffffffffffffffffffffffffffffffffffffff1673ffffffffffffffffffffffffffffffffffffffff16815260200190600101908083116107ae575b5050505050815260200160088201805461081190612c1e565b80601f016020809104026020016040519081016040528092919081815260200182805461083d90612c1e565b801561088a5780601f1061085f5761010080835404028352916020019161088a565b820191906000526020600020905b81548152906001019060200180831161086d57829003601f168201915b505050505081526020016009820160009054906101000a900460ff161515151581525050905060008160e00151519050600081111561095e57600080600090505b82811015610946578973ffffffffffffffffffffffffffffffffffffffff168460e001518281518110610901576109006129c8565b5b602002602001015173ffffffffffffffffffffffffffffffffffffffff160361093357818061092f90612a79565b9250505b808061093e90612a79565b9150506108cb565b50600081111561095c5760018180975081985050505b505b505050509250929050565b60045481565b60066020528160005260406000206020528060005260406000206000915091509054906101000a900460ff1681565b6109a6611f2e565b80600060076000838152602001908152602001600020604051806101400160405290816000820154815260200160018201548152602001600282015481526020016003820154815260200160048201548152602001600582015481526020016006820154815260200160078201805480602002602001604051908101604052809291908181526020018280548015610a9357602002820191906000526020600020905b8160009054906101000a900473ffffffffffffffffffffffffffffffffffffffff1673ffffffffffffffffffffffffffffffffffffffff1681526020019060010190808311610a49575b50505050508152602001600882018054610aac90612c1e565b80601f0160208091040260200160405190810160405280929190818152602001828054610ad890612c1e565b8015610b255780601f10610afa57610100808354040283529160200191610b25565b820191906000526020600020905b815481529060010190602001808311610b0857829003601f168201915b505050505081526020016009820160009054906101000a900460ff16151515158152505090506000816080015103610b92576040517f08c379a0000000000000000000000000000000000000000000000000000000008152600401610b8990612c9b565b60405180910390fd5b600060076000858152602001908152602001600020604051806101400160405290816000820154815260200160018201548152602001600282015481526020016003820154815260200160048201548152602001600582015481526020016006820154815260200160078201805480602002602001604051908101604052809291908181526020018280548015610c7e57602002820191906000526020600020905b8160009054906101000a900473ffffffffffffffffffffffffffffffffffffffff1673ffffffffffffffffffffffffffffffffffffffff1681526020019060010190808311610c34575b50505050508152602001600882018054610c9790612c1e565b80601f0160208091040260200160405190810160405280929190818152602001828054610cc390612c1e565b8015610d105780601f10610ce557610100808354040283529160200191610d10565b820191906000526020600020905b815481529060010190602001808311610cf357829003601f168201915b505050505081526020016009820160009054906101000a900460ff16151515158152505090508060a001514211610d7c576040517f08c379a0000000000000000000000000000000000000000000000000000000008152600401610d7390612d07565b60405180910390fd5b80610120015115610dc2576040517f08c379a0000000000000000000000000000000000000000000000000000000008152600401610db990612d73565b60405180910390fd5b600060076000868152602001908152602001600020905060018160090160006101000a81548160ff021916908315150217905550600080610e078461010001516110f5565b9150915081836006018190555060008085604001518660200151610e2b9190612d93565b90506000600860008b8152602001908152602001600020600086815260200190815260200160002080549050905060008103610e6957819250610edf565b60006003549050620186a08184610e809190612d93565b610e8a9190612e04565b935060008484610e9a9190612e35565b9050808860030181905550600860008d8152602001908152602001600020600088815260200190815260200160002088600701908054610edb92919061214d565b5050505b82600460008282540192505081905550600760008b8152602001908152602001600020604051806101400160405290816000820154815260200160018201548152602001600282015481526020016003820154815260200160048201548152602001600582015481526020016006820154815260200160078201805480602002602001604051908101604052809291908181526020018280548015610fd957602002820191906000526020600020905b8160009054906101000a900473ffffffffffffffffffffffffffffffffffffffff1673ffffffffffffffffffffffffffffffffffffffff1681526020019060010190808311610f8f575b50505050508152602001600882018054610ff290612c1e565b80601f016020809104026020016040519081016040528092919081815260200182805461101e90612c1e565b801561106b5780601f106110405761010080835404028352916020019161106b565b820191906000526020600020905b81548152906001019060200180831161104e57829003601f168201915b505050505081526020016009820160009054906101000a900460ff16151515158152505096503373ffffffffffffffffffffffffffffffffffffffff167fd5c27ef1554ac6d4e51aeabd45a5e0c70f1e5ee39e2fd63cbd11fd6396d7108a8b87878b60e001516040516110e19493929190612f27565b60405180910390a250505050505050505050565b600080600160009054906101000a900473ffffffffffffffffffffffffffffffffffffffff1673ffffffffffffffffffffffffffffffffffffffff1663abc4544e846040518263ffffffff1660e01b81526004016111539190612f73565b6040805180830381865afa15801561116f573d6000803e3d6000fd5b505050506040513d601f19601f820116820180604052508101906111939190612fd6565b91509150915091565b6111a4611f2e565b60006004549050600081116111ee576040517f08c379a00000000000000000000000000000000000000000000000000000000081526004016111e590613062565b60405180910390fd5b60006004819055506112008282611fac565b8173ffffffffffffffffffffffffffffffffffffffff167fdfeef5879c25440d1418a79a16489f0e739d22ac040c8c76f7b998fc704edeb8826040516112469190612596565b60405180910390a25050565b61125a611f2e565b611264600061205d565b565b600a818051602081018201805184825260208301602085012081835280955050505050506000915054906101000a900460ff1681565b60008060009054906101000a900473ffffffffffffffffffffffffffffffffffffffff16905090565b826000600760008381526020019081526020016000206040518061014001604052908160008201548152602001600182015481526020016002820154815260200160038201548152602001600482015481526020016005820154815260200160068201548152602001600782018054806020026020016040519081016040528092919081815260200182805480156113b257602002820191906000526020600020905b8160009054906101000a900473ffffffffffffffffffffffffffffffffffffffff1673ffffffffffffffffffffffffffffffffffffffff1681526020019060010190808311611368575b505050505081526020016008820180546113cb90612c1e565b80601f01602080910402602001604051908101604052809291908181526020018280546113f790612c1e565b80156114445780601f1061141957610100808354040283529160200191611444565b820191906000526020600020905b81548152906001019060200180831161142757829003601f168201915b505050505081526020016009820160009054906101000a900460ff161515151581525050905060008160800151036114b1576040517f08c379a00000000000000000000000000000000000000000000000000000000081526004016114a890612c9b565b60405180910390fd5b60006007600087815260200190815260200160002060405180610140016040529081600082015481526020016001820154815260200160028201548152602001600382015481526020016004820154815260200160058201548152602001600682015481526020016007820180548060200260200160405190810160405280929190818152602001828054801561159d57602002820191906000526020600020905b8160009054906101000a900473ffffffffffffffffffffffffffffffffffffffff1673ffffffffffffffffffffffffffffffffffffffff1681526020019060010190808311611553575b505050505081526020016008820180546115b690612c1e565b80601f01602080910402602001604051908101604052809291908181526020018280546115e290612c1e565b801561162f5780601f106116045761010080835404028352916020019161162f565b820191906000526020600020905b81548152906001019060200180831161161257829003601f168201915b505050505081526020016009820160009054906101000a900460ff1615151515815250509050428160a0015111801561166b5750428160800151105b6116aa576040517f08c379a00000000000000000000000000000000000000000000000000000000081526004016116a1906130ce565b60405180910390fd5b600085859050905060008183602001516116c49190612d93565b9050348114611708576040517f08c379a00000000000000000000000000000000000000000000000000000000081526004016116ff9061313a565b60405180910390fd5b60005b8281101561185457600960003373ffffffffffffffffffffffffffffffffffffffff1673ffffffffffffffffffffffffffffffffffffffff16815260200190815260200160002060008a8152602001908152602001600020888883818110611776576117756129c8565b5b905060200201359080600181540180825580915050600190039060005260206000200160009091909190915055600860008a815260200190815260200160002060008989848181106117cb576117ca6129c8565b5b905060200201358152602001908152602001600020339080600181540180825580915050600190039060005260206000200160009091909190916101000a81548173ffffffffffffffffffffffffffffffffffffffff021916908373ffffffffffffffffffffffffffffffffffffffff160217905550808061184c90612a79565b91505061170b565b506000600760008a81526020019081526020016000209050828160020160008282540192505081905550883373ffffffffffffffffffffffffffffffffffffffff167f4b7ef745f5f9992d47ece5ded975db4b0bb03e068f0cb74c03af61c8e9cc41ce8a8a6040516118c7929190613232565b60405180910390a3505050505050505050565b60006118e4611f2e565b6000600a84846040516118f892919061327b565b908152602001604051809103902060009054906101000a900460ff16905080611956576040517f08c379a000000000000000000000000000000000000000000000000000000000815260040161194d906132e0565b60405180910390fd5b6119606002612121565b61196a6002612137565b91506000864261197a9190613300565b90506000868261198a9190613300565b9050600060076000868152602001908152602001600020905084816000018190555089816001018190555082816004018190555081816005018190555086868260080191826119da9291906134eb565b5086866040516119eb92919061327b565b60405180910390208a7ffe981c5677c7e638b711c525f76d3a69fc5b820268c60ac5fa4765b5e9b2fbbd878686604051611a27939291906135bb565b60405180910390a35050505095945050505050565b6007602052806000526040600020600091509050806000015490806001015490806002015490806003015490806004015490806005015490806006015490806008018054611a8990612c1e565b80601f0160208091040260200160405190810160405280929190818152602001828054611ab590612c1e565b8015611b025780601f10611ad757610100808354040283529160200191611b02565b820191906000526020600020905b815481529060010190602001808311611ae557829003601f168201915b5050505050908060090160009054906101000a900460ff16905089565b6000600660003373ffffffffffffffffffffffffffffffffffffffff1673ffffffffffffffffffffffffffffffffffffffff168152602001908152602001600020600083815260200190815260200160002060009054906101000a900460ff1690508015611bc2576040517f08c379a0000000000000000000000000000000000000000000000000000000008152600401611bb99061363e565b60405180910390fd5b6000611bce338461051d565b91505060008111611c14576040517f08c379a0000000000000000000000000000000000000000000000000000000008152600401611c0b906136aa565b60405180910390fd5b600060076000858152602001908152602001600020604051806101400160405290816000820154815260200160018201548152602001600282015481526020016003820154815260200160048201548152602001600582015481526020016006820154815260200160078201805480602002602001604051908101604052809291908181526020018280548015611d0057602002820191906000526020600020905b8160009054906101000a900473ffffffffffffffffffffffffffffffffffffffff1673ffffffffffffffffffffffffffffffffffffffff1681526020019060010190808311611cb6575b50505050508152602001600882018054611d1990612c1e565b80601f0160208091040260200160405190810160405280929190818152602001828054611d4590612c1e565b8015611d925780601f10611d6757610100808354040283529160200191611d92565b820191906000526020600020905b815481529060010190602001808311611d7557829003601f168201915b505050505081526020016009820160009054906101000a900460ff16151515158152505090506000828260e00151518360600151611dd09190612e04565b611dda9190612d93565b90506001600660003373ffffffffffffffffffffffffffffffffffffffff1673ffffffffffffffffffffffffffffffffffffffff168152602001908152602001600020600087815260200190815260200160002060006101000a81548160ff021916908315150217905550611e4f3382611fac565b843373ffffffffffffffffffffffffffffffffffffffff167fb621c4bc81d4f854d7ac2eb7b217fd63760781dff83f8916e1a0f827b28683fb83604051611e969190612596565b60405180910390a35050505050565b60035481565b611eb3611f2e565b600073ffffffffffffffffffffffffffffffffffffffff168173ffffffffffffffffffffffffffffffffffffffff1603611f22576040517f08c379a0000000000000000000000000000000000000000000000000000000008152600401611f199061373c565b60405180910390fd5b611f2b8161205d565b50565b611f36612145565b73ffffffffffffffffffffffffffffffffffffffff16611f5461129c565b73ffffffffffffffffffffffffffffffffffffffff1614611faa576040517f08c379a0000000000000000000000000000000000000000000000000000000008152600401611fa1906137a8565b60405180910390fd5b565b60008273ffffffffffffffffffffffffffffffffffffffff1682604051611fd2906137f9565b60006040518083038185875af1925050503d806000811461200f576040519150601f19603f3d011682016040523d82523d6000602084013e612014565b606091505b5050905080612058576040517f08c379a000000000000000000000000000000000000000000000000000000000815260040161204f9061385a565b60405180910390fd5b505050565b60008060009054906101000a900473ffffffffffffffffffffffffffffffffffffffff169050816000806101000a81548173ffffffffffffffffffffffffffffffffffffffff021916908373ffffffffffffffffffffffffffffffffffffffff1602179055508173ffffffffffffffffffffffffffffffffffffffff168173ffffffffffffffffffffffffffffffffffffffff167f8be0079c531659141344cd1fd0a4f28419497f9722a3daafe3b4186f6b6457e060405160405180910390a35050565b6001816000016000828254019250508190555050565b600081600001549050919050565b600033905090565b82805482825590600052602060002090810192821561218e5760005260206000209182015b8281111561218d578254825591600101919060010190612172565b5b50905061219b919061219f565b5090565b5b808211156121b85760008160009055506001016121a0565b5090565b600073ffffffffffffffffffffffffffffffffffffffff82169050919050565b60006121e7826121bc565b9050919050565b6121f7816121dc565b82525050565b600060208201905061221260008301846121ee565b92915050565b6000604051905090565b600080fd5b600080fd5b600080fd5b6000601f19601f8301169050919050565b7f4e487b7100000000000000000000000000000000000000000000000000000000600052604160045260246000fd5b61227a82612231565b810181811067ffffffffffffffff8211171561229957612298612242565b5b80604052505050565b60006122ac612218565b90506122b88282612271565b919050565b600067ffffffffffffffff8211156122d8576122d7612242565b5b602082029050602081019050919050565b600080fd5b600080fd5b600067ffffffffffffffff82111561230e5761230d612242565b5b61231782612231565b9050602081019050919050565b82818337600083830152505050565b6000612346612341846122f3565b6122a2565b905082815260208101848484011115612362576123616122ee565b5b61236d848285612324565b509392505050565b600082601f83011261238a5761238961222c565b5b813561239a848260208601612333565b91505092915050565b60006123b66123b1846122bd565b6122a2565b905080838252602082019050602084028301858111156123d9576123d86122e9565b5b835b8181101561242057803567ffffffffffffffff8111156123fe576123fd61222c565b5b80860161240b8982612375565b855260208501945050506020810190506123db565b5050509392505050565b600082601f83011261243f5761243e61222c565b5b813561244f8482602086016123a3565b91505092915050565b60006020828403121561246e5761246d612222565b5b600082013567ffffffffffffffff81111561248c5761248b612227565b5b6124988482850161242a565b91505092915050565b6124aa816121dc565b81146124b557600080fd5b50565b6000813590506124c7816124a1565b92915050565b6000819050919050565b6124e0816124cd565b81146124eb57600080fd5b50565b6000813590506124fd816124d7565b92915050565b6000806040838503121561251a57612519612222565b5b6000612528858286016124b8565b9250506020612539858286016124ee565b9150509250929050565b60008115159050919050565b61255881612543565b82525050565b612567816124cd565b82525050565b6000604082019050612582600083018561254f565b61258f602083018461255e565b9392505050565b60006020820190506125ab600083018461255e565b92915050565b60006020820190506125c6600083018461254f565b92915050565b6000602082840312156125e2576125e1612222565b5b60006125f0848285016124ee565b91505092915050565b60006020828403121561260f5761260e612222565b5b600082013567ffffffffffffffff81111561262d5761262c612227565b5b61263984828501612375565b91505092915050565b6000819050919050565b61265581612642565b82525050565b6000604082019050612670600083018561264c565b61267d602083018461255e565b9392505050565b600061268f826121bc565b9050919050565b61269f81612684565b81146126aa57600080fd5b50565b6000813590506126bc81612696565b92915050565b6000602082840312156126d8576126d7612222565b5b60006126e6848285016126ad565b91505092915050565b600080fd5b60008083601f84011261270a5761270961222c565b5b8235905067ffffffffffffffff811115612727576127266126ef565b5b602083019150836020820283011115612743576127426122e9565b5b9250929050565b60008060006040848603121561276357612762612222565b5b6000612771868287016124ee565b935050602084013567ffffffffffffffff81111561279257612791612227565b5b61279e868287016126f4565b92509250509250925092565b60008083601f8401126127c0576127bf61222c565b5b8235905067ffffffffffffffff8111156127dd576127dc6126ef565b5b6020830191508360018202830111156127f9576127f86122e9565b5b9250929050565b60008060008060006080868803121561281c5761281b612222565b5b600061282a888289016124ee565b955050602061283b888289016124ee565b945050604061284c888289016124ee565b935050606086013567ffffffffffffffff81111561286d5761286c612227565b5b612879888289016127aa565b92509250509295509295909350565b600081519050919050565b600082825260208201905092915050565b60005b838110156128c25780820151818401526020810190506128a7565b60008484015250505050565b60006128d982612888565b6128e38185612893565b93506128f38185602086016128a4565b6128fc81612231565b840191505092915050565b60006101208201905061291d600083018c61255e565b61292a602083018b61255e565b612937604083018a61255e565b612944606083018961255e565b612951608083018861255e565b61295e60a083018761255e565b61296b60c083018661264c565b81810360e083015261297d81856128ce565b905061298d61010083018461254f565b9a9950505050505050505050565b6000602082840312156129b1576129b0612222565b5b60006129bf848285016124b8565b91505092915050565b7f4e487b7100000000000000000000000000000000000000000000000000000000600052603260045260246000fd5b600081905092915050565b6000612a0d82612888565b612a1781856129f7565b9350612a278185602086016128a4565b80840191505092915050565b6000612a3f8284612a02565b915081905092915050565b7f4e487b7100000000000000000000000000000000000000000000000000000000600052601160045260246000fd5b6000612a84826124cd565b91507fffffffffffffffffffffffffffffffffffffffffffffffffffffffffffffffff8203612ab657612ab5612a4a565b5b600182019050919050565b600081519050919050565b600082825260208201905092915050565b6000819050602082019050919050565b600082825260208201905092915050565b6000612b0982612888565b612b138185612aed565b9350612b238185602086016128a4565b612b2c81612231565b840191505092915050565b6000612b438383612afe565b905092915050565b6000602082019050919050565b6000612b6382612ac1565b612b6d8185612acc565b935083602082028501612b7f85612add565b8060005b85811015612bbb5784840389528151612b9c8582612b37565b9450612ba783612b4b565b925060208a01995050600181019050612b83565b50829750879550505050505092915050565b60006020820190508181036000830152612be78184612b58565b905092915050565b7f4e487b7100000000000000000000000000000000000000000000000000000000600052602260045260246000fd5b60006002820490506001821680612c3657607f821691505b602082108103612c4957612c48612bef565b5b50919050565b7f494e56414c49445f494400000000000000000000000000000000000000000000600082015250565b6000612c85600a83612893565b9150612c9082612c4f565b602082019050919050565b60006020820190508181036000830152612cb481612c78565b9050919050565b7f4e4f545f59455400000000000000000000000000000000000000000000000000600082015250565b6000612cf1600783612893565b9150612cfc82612cbb565b602082019050919050565b60006020820190508181036000830152612d2081612ce4565b9050919050565b7f414c52454144595f5245534f4c56454400000000000000000000000000000000600082015250565b6000612d5d601083612893565b9150612d6882612d27565b602082019050919050565b60006020820190508181036000830152612d8c81612d50565b9050919050565b6000612d9e826124cd565b9150612da9836124cd565b9250828202612db7816124cd565b91508282048414831517612dce57612dcd612a4a565b5b5092915050565b7f4e487b7100000000000000000000000000000000000000000000000000000000600052601260045260246000fd5b6000612e0f826124cd565b9150612e1a836124cd565b925082612e2a57612e29612dd5565b5b828204905092915050565b6000612e40826124cd565b9150612e4b836124cd565b9250828203905081811115612e6357612e62612a4a565b5b92915050565b600081519050919050565b600082825260208201905092915050565b6000819050602082019050919050565b612e9e816121dc565b82525050565b6000612eb08383612e95565b60208301905092915050565b6000602082019050919050565b6000612ed482612e69565b612ede8185612e74565b9350612ee983612e85565b8060005b83811015612f1a578151612f018882612ea4565b9750612f0c83612ebc565b925050600181019050612eed565b5085935050505092915050565b6000608082019050612f3c600083018761255e565b612f49602083018661264c565b612f56604083018561255e565b8181036060830152612f688184612ec9565b905095945050505050565b60006020820190508181036000830152612f8d81846128ce565b905092915050565b612f9e81612642565b8114612fa957600080fd5b50565b600081519050612fbb81612f95565b92915050565b600081519050612fd0816124d7565b92915050565b60008060408385031215612fed57612fec612222565b5b6000612ffb85828601612fac565b925050602061300c85828601612fc1565b9150509250929050565b7f4e4f5448494e475f544f5f574954484452415700000000000000000000000000600082015250565b600061304c601383612893565b915061305782613016565b602082019050919050565b6000602082019050818103600083015261307b8161303f565b9050919050565b7f50524544494354494f4e5f4e4f545f4f50454e00000000000000000000000000600082015250565b60006130b8601383612893565b91506130c382613082565b602082019050919050565b600060208201905081810360008301526130e7816130ab565b9050919050565b7f57524f4e475f5041594d454e545f56414c554500000000000000000000000000600082015250565b6000613124601383612893565b915061312f826130ee565b602082019050919050565b6000602082019050818103600083015261315381613117565b9050919050565b600082825260208201905092915050565b6000819050919050565b61317e81612642565b82525050565b60006131908383613175565b60208301905092915050565b6000813590506131ab81612f95565b92915050565b60006131c0602084018461319c565b905092915050565b6000602082019050919050565b60006131e1838561315a565b93506131ec8261316b565b8060005b858110156132255761320282846131b1565b61320c8882613184565b9750613217836131c8565b9250506001810190506131f0565b5085925050509392505050565b6000602082019050818103600083015261324d8184866131d5565b90509392505050565b600061326283856129f7565b935061326f838584612324565b82840190509392505050565b6000613288828486613256565b91508190509392505050565b7f494e56414c49445f504149520000000000000000000000000000000000000000600082015250565b60006132ca600c83612893565b91506132d582613294565b602082019050919050565b600060208201905081810360008301526132f9816132bd565b9050919050565b600061330b826124cd565b9150613316836124cd565b925082820190508082111561332e5761332d612a4a565b5b92915050565b600082905092915050565b60008190508160005260206000209050919050565b60006020601f8301049050919050565b600082821b905092915050565b6000600883026133a17fffffffffffffffffffffffffffffffffffffffffffffffffffffffffffffffff82613364565b6133ab8683613364565b95508019841693508086168417925050509392505050565b6000819050919050565b60006133e86133e36133de846124cd565b6133c3565b6124cd565b9050919050565b6000819050919050565b613402836133cd565b61341661340e826133ef565b848454613371565b825550505050565b600090565b61342b61341e565b6134368184846133f9565b505050565b5b8181101561345a5761344f600082613423565b60018101905061343c565b5050565b601f82111561349f576134708161333f565b61347984613354565b81016020851015613488578190505b61349c61349485613354565b83018261343b565b50505b505050565b600082821c905092915050565b60006134c2600019846008026134a4565b1980831691505092915050565b60006134db83836134b1565b9150826002028217905092915050565b6134f58383613334565b67ffffffffffffffff81111561350e5761350d612242565b5b6135188254612c1e565b61352382828561345e565b6000601f8311600181146135525760008415613540578287013590505b61354a85826134cf565b8655506135b2565b601f1984166135608661333f565b60005b8281101561358857848901358255600182019150602085019450602081019050613563565b868310156135a557848901356135a1601f8916826134b1565b8355505b6001600288020188555050505b50505050505050565b60006060820190506135d0600083018661255e565b6135dd602083018561255e565b6135ea604083018461255e565b949350505050565b7f414c52454144595f434c41494d45440000000000000000000000000000000000600082015250565b6000613628600f83612893565b9150613633826135f2565b602082019050919050565b600060208201905081810360008301526136578161361b565b9050919050565b7f4e4f545f57494e4e455200000000000000000000000000000000000000000000600082015250565b6000613694600a83612893565b915061369f8261365e565b602082019050919050565b600060208201905081810360008301526136c381613687565b9050919050565b7f4f776e61626c653a206e6577206f776e657220697320746865207a65726f206160008201527f6464726573730000000000000000000000000000000000000000000000000000602082015250565b6000613726602683612893565b9150613731826136ca565b604082019050919050565b6000602082019050818103600083015261375581613719565b9050919050565b7f4f776e61626c653a2063616c6c6572206973206e6f7420746865206f776e6572600082015250565b6000613792602083612893565b915061379d8261375c565b602082019050919050565b600060208201905081810360008301526137c181613785565b9050919050565b600081905092915050565b50565b60006137e36000836137c8565b91506137ee826137d3565b600082019050919050565b6000613804826137d6565b9150819050919050565b7f5749544844524157414c5f4552524f5200000000000000000000000000000000600082015250565b6000613844601083612893565b915061384f8261380e565b602082019050919050565b6000602082019050818103600083015261387381613837565b905091905056fea26469706673582212203be484f82dde8b645bb28d909e52efa6077038cc7b95209affaed34c72fc83ac64736f6c63430008110033",
  "linkReferences": {},
  "deployedLinkReferences": {}
}